{
	"abi": [
		{
			"type": "function",
			"name": "ifIncrement",
			"inputs": [
				{
					"name": "condition",
					"type": "bool",
					"internalType": "bool"
				}
			],
			"outputs": [],
			"stateMutability": "nonpayable"
		},
		{
			"type": "function",
			"name": "increment",
			"inputs": [],
			"outputs": [],
			"stateMutability": "nonpayable"
		},
		{
			"type": "function",
			"name": "number",
			"inputs": [],
			"outputs": [
				{
					"name": "",
					"type": "uint256",
					"internalType": "uint256"
				}
			],
			"stateMutability": "view"
		},
		{
			"type": "function",
			"name": "setNumber",
			"inputs": [
				{
					"name": "newNumber",
					"type": "uint256",
					"internalType": "uint256"
				}
			],
			"outputs": [],
			"stateMutability": "nonpayable"
		}
	],
	"bytecode": {
		"object": "0x6080604052348015600f57600080fd5b5061016f8061001f6000396000f3fe608060405234801561001057600080fd5b506004361061004c5760003560e01c80633fb5c1cb1461005157806351a288bf146100665780638381f58a14610079578063d09de08a14610094575b600080fd5b61006461005f3660046100d0565b600055565b005b6100646100743660046100e9565b61009c565b61008260005481565b60405190815260200160405180910390f35b6100646100ba565b80156100b7576000805490806100b183610112565b91905055505b50565b6000805490806100c983610112565b9190505550565b6000602082840312156100e257600080fd5b5035919050565b6000602082840312156100fb57600080fd5b8135801515811461010b57600080fd5b9392505050565b60006001820161013257634e487b7160e01b600052601160045260246000fd5b506001019056fea26469706673582212205086fdafd05a978807d3a8b1647f7559a5b734e260e1e296b25a12e3ad4434cb64736f6c63430008190033",
		"linkReferences": {}
	},
	"methodIdentifiers": {
		"ifIncrement(bool)": "51a288bf",
		"increment()": "d09de08a",
		"number()": "8381f58a",
		"setNumber(uint256)": "3fb5c1cb"
	},
	"id": 23
}